:020000040800F2
:20000000000005202D18000829170008371700083D170008431700084917000800000000AA
:200020000000000000000000000000004F1700085D170008000000006B17000879170008B4
:200040007D1800087D1800087D1800087D1800087D1800087D1800087D1800087D180008B8
:200060007D1800087D1800087D1800087D1800087D1800087D1800087D1800087D18000898
:200080007D1800087D1800087D1800087D1800087D1800087D1800087D1800087D18000878
:2000A0007D1800087D1800087D1800087D180008891700087D1800087D1800087D1800084D
:2000C0007D1800087D1800087D1800087D1800087D1800087D1800087D1800087D18000838
:2000E0007D1800087D1800087D1800087D1800087D1800087D1800087D1800087D18000818
:200100009D1700087D180008B11700087D1800087D1800087D1800087D1800087D180008A5
:200120007D1800087D1800087D1800087D1800087D1800087D1800087D1800087D180008D7
:200140007D1800087D1800087D1800087D1800087D1800087D180008C51700087D18000870
:200160007D1800087D1800087D1800087D1800087D1800087D1800087D1800087D18000897
:200180007D1800087D1800087D1800087D1800087D1800087D1800087D1800087D18000877
:2001A000D9170008ED1700087D1800087D1800087D1800087D1800087D1800087D1800088D
:2001C0007D1800087D18000810B5054C237833B9044B13B10448AFF300800123237010BD43
:2001E0000C000020000000003856000808B5034B1BB103490348AFF3008008BD00000000E8
:20020000100000203856000853B94AB9002908BF00281CBF4FF0FF314FF0FF3000F072B91E
:20022000ADF1080C6DE904CE00F006F8DDF804E0DDE9022304B070472DE9F047089E0446AA
:200240008846002B4BD18A42154667D9B2FA82F24AB1C2F1200701FA02F320FA07F7954050
:2002600047EA030894404FEA154E230CB8FBFEF71FFA85FC0EFB178843EA084307FB0CF142
:20028000994209D9EB1807F1FF3080F01B81994240F21881023F2B445B1AA4B2B3FBFEF0AE
:2002A0000EFB103344EA034400FB0CFCA44509D92C1900F1FF3380F00781A44540F20481AF
:2002C00002382C4440EA0740A4EB0C0400271EB1D4400023C6E900433946BDE8F0878B42DD
:2002E00009D9002E00F0EB800027C6E9000138463946BDE8F087B3FA83F7002F47D18B4268
:2003000002D3824200F2FA80841A61EB030301209846002EE0D0C6E90048DDE702B9FFDEB8
:20032000B2FA82F2002A40F08F80491B4FEA154E1FFA85F80127B1FBFEFC230C0EFB1C116B
:2003400043EA014308FB0CF1994207D9EB180CF1FF3002D2994200F2CD808446591AA3B2C2
:20036000B1FBFEF00EFB101443EA044408FB00F8A04507D92C1900F1FF3302D2A04500F26E
:20038000B6801846A4EB080440EA0C409FE7C7F1200CBB4022FA0CFE4EEA030E01FA07F4EE
:2003A00020FA0CF521FA0CF34FEA1E482543B3FBF8F92C0C08FB19331FFA8EFA44EA0343C6
:2003C00009FB0AF49C4202FA07F200FA07F10BD91EEB030309F1FF3080F087809C4240F2B3
:2003E0008480A9F1020973441B1BADB2B3FBF8F008FB103345EA034400FB0AFAA24508D9EF
:200400001EEB040400F1FF336BD2A24569D90238744440EA0940A0FB0289A4EB0A044C4589
:20042000C2464B4654D351D0002E69D0B1EB0A0564EB030404FA0CFCFD40FC404CEA0505B4
:20044000C6E90054002747E7C2F1200320FA03F7954001FA02F021FA03F34FEA154E384370
:20046000010CB3FBFEF71FFA85F80EFB173341EA034107FB08F38B4204FA02F407D9691855
:2004800007F1FF3C2FD28B422DD9023F2944CB1A81B2B3FBFEF00EFB103341EA034100FB3D
:2004A00008F38B4207D9691800F1FF3C17D28B4215D902382944C91A40EA07473BE73746A2
:2004C000304609E70746E7E61846FBE64145ABD2B8EB020A69EB0E0201381346A4E7604684
:2004E000E9E7184695E76746D1E781467CE702382C4447E7ACF1020C2B442FE7384608E74E
:200500003746E9E6704700BF80B500AF00220421074802F063FA642001F0DEF901220421BC
:20052000034802F05BFA192001F0D6F900BF80BD0018024080B584B000AF0F4802F038FB46
:200540000E4804F0D9FA0E4804F0D6FA0D4B00221A600D4BFB60FB6804331B68BB60FB6822
:200560001B687B607B6883F30888BB68984700BF1037BD4680BD00BFEC000020D40200202B
:200580004802002010E000E0000002C080B584B000AF01F0D5FA01233B704FF040437B601B
:2005A00016233B720323FB720023FB730123BB7300237B7300237B700023BB7200237B7260
:2005C00000233B733B46184601F0EEFA042001F0CDFA01F054F900F031F800F003FB00F081
:2005E0005DFA00F0ABF900F0C1F800F0F1F800F0A7FA00F01DFA00F0CDF90A4800F0FAFB09
:20060000084800F041FCFFF77FFF074A0021074805F009F8064A0749074804F0F9FFFFF761
:2006200089FFFEE78802002000B80B00000050C0C0FF0D0000000290000002C080B5B4B017
:2006400000AF07F1A00330220021184604F0EBFF07F18C0300221A605A609A60DA601A6115
:2006600007F1080384220021184604F0DCFF3D4B1B6C3C4A43F0805313643A4B1B6C03F072
:2006800080537B607B68384B1B68374A43F440431360354B1B6803F440433B603B68012336
:2006A000C7F8A0304FF48033C7F8A4300223C7F8B8304FF48003C7F8BC300423C7F8C0300F
:2006C000D823C7F8C4300223C7F8C8300223C7F8CC3007F1A003184603F098F80346002BC0
:2006E00001D000F07FFB02F015FD0346002B01D000F078FB0F23C7F88C300223C7F89030C2
:200700000023C7F894304FF4A053C7F898304FF48053C7F89C3007F18C030721184603F0D5
:2007200019FB0346002B01D000F05CFB0823BB604523FB6103237B6202233B620023BB620A
:2007400001233B6300237B6307F10803184603F017FD0346002B01D000F044FB00BFD03734
:20076000BD4680BD003802400070004080B500AF154B164A1A60144B00225A60124B022235
:200780009A60114B0022DA600F4B00229A620E4B0222DA620C4B00221A630B4B00225A634B
:2007A000094801F08BFD0346002B01D000F01AFB0121054801F0CCFD0346002B01D000F0C7
:2007C00011FB00BF80BD00BF9401002000B0024080B59AB000AF07F1340334220021184679
:2007E00004F021FF3B4634220021184604F01BFF4F4B504A1A604E4B00225A604C4B0022A5
:200800009A604B4B0022DA60494B00221A61484B03225A61464B03229A61454B0B22DA619F
:20082000434B0B221A62424B40F22B325A62404B40F2EB129A623E4B40F23332DA623C4B10
:2008400040F2F3121A633A4B002283F83420384B002283F83520364B002283F83620344809
:2008600002F0D6F80346002B01D000F0BBFA00237B634FF44873BB630023FB634FF4F0738A
:200880003B6402237B64FF23BB640023FB644FF480633B6505237B65274BBB654FF4487394
:2008A000FB654FF4F0733B66002387F86430002387F86530002387F8663007F1340300229B
:2008C00019461B4802F04EFA0346002B01D000F089FA00233B6000237B600023BB60002347
:2008E000FB6000237B610023BB614FF48063FB6105233B6200237B620023BB620023FB6258
:20090000002387F83030002387F83130002387F832303B4601221946054802F023FA034626
:20092000002B01D000F05EFA00BF6837BD4680BDEC00002000680140000050C080B500AF2C
:20094000124B134A1A60114B02225A600F4B04229A600E4B0022DA600C4B10221A610B4BA0
:200960004FF4E0625A61094B00229A61074B0022DA61064B00221A62044802F01BFC03468A
:20098000002B01D000F02EFA00BF80BD88020020001000A080B588B000AF07F110030022A4
:2009A0001A605A609A60DA603B1D00221A605A609A601E4B4FF080421A601C4B40F21B226D
:2009C0005A601A4B00229A60184B40F2E732DA60164B00221A61154B00229A61134804F02A
:2009E00060F80346002B01D000F0FCF94FF480533B6107F1100319460C4804F0F7F90346D8
:200A0000002B01D000F0EEF900237B600023FB603B1D1946054804F005FC0346002B01D049
:200A200000F0E0F900BF2037BD4680BDD401002080B584B000AF3B1D00221A605A609A60E2
:200A4000144B154A1A60134B00225A60114B00229A60104B0022DA600E4B00229A610D482A
:200A600004F01FF80346002B01D000F0BBF900237B600023FB603B1D1946064804F0D2FB40
:200A80000346002B01D000F0ADF900BF1037BD4680BD00BF480200200014004080B582B051
:200AA00000AF244B1B6B234A43F480031363214B1B6B03F480037B607B681F4B1F4A1A607E
:200AC0001D4B00225A601C4B80229A601A4B4FF40072DA60184B4FF480621A61164B0022F5
:200AE0005A61154B00229A61134B0022DA61124B00221A62104B04225A620F4B03229A6250
:200B00000D4B0022DA620C4B00221A630A4801F08FF80346002B01D000F064F9002200218A
:200B2000462000F0D5FF462000F0EEFF00BF0837BD4680BD003802408C000020106402402E
:200B400080B588B000AF3B1D00221A605A609A60DA601A615A619A61204B214A1A601F4BAC
:200B600000225A601D4B00229A601C4B0422DA601A4B10221A61194B40225A61174B4FF416
:200B8000C0729A61154B0022DA61144B4FF400621A62124B4FF480525A62104B00229A6244
:200BA00002237B600723BB600423FB6007233B6103237B610223BB610223FB613B1D19462D
:200BC000064803F0CBFE0346002B01D000F00AF900F0A4F800BF2037BD4680BD14020020BB
:200BE000400100A080B58EB000AF07F1240300221A605A609A60DA601A61454B1B6B444A2A
:200C000043F010031363424B1B6B03F010033B623B6A3F4B1B6B3E4A43F0200313633C4BD2
:200C20001B6B03F02003FB61FB69394B1B6B384A43F080031363364B1B6B03F08003BB6107
:200C4000BB69334B1B6B324A43F004031363304B1B6B03F004037B617B692D4B1B6B2C4A11
:200C600043F0010313632A4B1B6B03F001033B613B69274B1B6B264A43F002031363244B10
:200C80001B6B03F00203FB60FB68214B1B6B204A43F0400313631E4B1B6B03F04003BB6090
:200CA000BB681B4B1B6B1A4A43F008031363184B1B6B03F008037B607B68002220211548A8
:200CC00001F08CFE00220421134801F087FE20237B620123BB620023FB6200233B6307F1E7
:200CE000240319460B4801F0C5FB04237B620123BB620023FB6200233B6307F12403194666
:200D0000054801F0B7FB00BF3837BD4680BD00BF00380240001002400018024080B586B025
:200D200000AF00237B6101237B601023BB600123FB6000233B613B1D4FF6FF7219461F48A6
:200D400003F064FE012000F0C7FD02237B601023BB600123FB6000233B613B1D4FF6FF72CF
:200D60001946164803F052FE03237B601023BB600823FB6000233B613B1D4FF6FF72194672
:200D80000E4803F043FE4FF40C737B6104237B601023BB600123FB607B693B613B1D4FF63F
:200DA000FF721946054803F031FE40F26A51034803F057FE00BF1837BD4680BD14020020F0
:200DC00080B582B000AF78607B681B68044A934201D100F061FD00BF0837BD4680BD00BF7F
:200DE000000C004080B400AF00BFBD465DF8047B7047000080B584B000AF78607B68214A39
:200E00001A60786802F052FA0346002B01D0012333E0786800F03CFA7B6801225A607B6815
:200E200004229A607B681022DA604FF08073FB60FB6893FAA3F3BB60BB68B3FA83F3DBB242
:200E4000013B1A467B681A617B684FF480725A617B6800229A617B680022DA617B68002280
:200E60001A62786802F0A6F90346002B01D0012303E0786800F03AF8002318461037BD466C
:200E800080BD00BF001000A080B592B000AF78604FF48073BB626B233B614FF48063FB62A8
:200EA0004FF40053FB6100233B634FF040737B6308237B620023FB6300233B6400237B6462
:200EC0000023FB600023BB6007F1080207F110031946786802F06CFA0346002B01D0012349
:200EE00000E0002318464837BD4680BD80B590B000AF78604FF480733B626623BB6000233C
:200F00007B620023BB620023FB620023FB6100237B630023BB630023FB634FF400537B6180
:200F200007F1080341F288321946786802F0E2F90346002B01D001230FE09923BB6007F18E
:200F4000080341F288321946786802F0D3F90346002B01D0012300E0002318464037BD4658
:200F600080BD000080B483B000AF0F4B1B6C0E4A43F0805313640C4B1B6C03F080537B60E9
:200F80007B68094B5B6C084A43F480435364064B5B6C03F480433B603B6800BF0C37BD463B
:200FA0005DF8047B704700BF0038024080B485B000AF78607B681B680A4A93420BD10A4BBD
:200FC0001B6B094A43F400031363074B1B6B03F40003FB60FB6800BF1437BD465DF8047B17
:200FE000704700BF00B002400038024080B58EB000AF786007F1240300221A605A609A60A6
:20100000DA601A617B681B68774A934240F0E880764B5B6C754A43F080635364734B5B6CEE
:2010200003F080633B623B6A704B1B6B6F4A43F0200313636D4B1B6B03F02003FB61FB69BE
:201040006A4B1B6B694A43F004031363674B1B6B03F00403BB61BB69644B1B6B634A43F06B
:2010600001031363614B1B6B03F001037B617B695E4B1B6B5D4A43F0020313635B4B1B6B5D
:2010800003F002033B613B69584B1B6B574A43F040031363554B1B6B03F04003FB60FB6848
:2010A000524B1B6B514A43F0080313634F4B1B6B03F00803BB60BB684FF480637B6202233A
:2010C000BB620023FB6200233B630E237B6307F124031946464801F0CDF9C1237B620223FA
:2010E000BB620023FB6200233B630E237B6307F1240319463F4801F0BDF97A237B62022338
:20110000BB620023FB6200233B630E237B6307F124031946384801F0ADF903237B620223A5
:20112000BB620023FB6200233B6309237B6307F124031946314801F09DF94FF470637B62D6
:201140000223BB620023FB6200233B630E237B6307F124031946294801F08CF94FF40C63E6
:201160007B620223BB620023FB6200233B630E237B6307F124031946214801F07BF9482349
:201180007B620223BB620023FB6200233B630E237B6307F1240319461A4801F06BF94FF468
:2011A000A0537B620223BB620023FB6200233B6309237B6307F124031946114801F05AF9B7
:2011C00000220021582000F083FC582000F09CFC00220021592000F07BFC592000F094FCC9
:2011E00000BF3837BD4680BD00680140003802400014024000080240000002400004024036
:2012000000180240000C024080B582B000AF78607B681B68164A934226D1164B5B6C154A1F
:2012200023F0806353644FF48061134801F0CCFAC121124801F0C8FA7A21114801F0C4FA39
:2012400040F603710F4801F0BFFA4FF4E6510E4801F0BAFA48210D4801F0B6FA582000F0A7
:2012600061FC592000F05EFC00BF0837BD4680BD006801400038024000140240000802404D
:20128000000002400004024000180240000C024080B58CB000AF786007F11C0300221A6073
:2012A0005A609A60DA601A617B681B68534A934240F09F80524B9B6B514A43F00203936332
:2012C0004F4B9B6B03F00203BB61BB694C4B1B6B4B4A43F010031363494B1B6B03F01003A8
:2012E0007B617B69464B1B6B454A43F002031363434B1B6B03F002033B613B69404B1B6B7D
:201300003F4A43F0080313633D4B1B6B03F00803FB60FB680423FB6102233B6200237B6281
:201320000323BB620923FB6207F11C031946354801F0A0F80423FB6102233B6200237B6220
:201340000323BB620923FB6207F11C0319462E4801F090F84FF46053FB6102233B62002325
:201360007B620323BB620923FB6207F11C031946264801F07FF84023FB6102233B620023D4
:201380007B620323BB620A23FB6207F11C0319461D4801F06FF81E4B1E4A1A601C4B4FF07F
:2013A000C0625A601A4B00229A60194B0022DA60174B4FF480621A61154B00225A61144B72
:2013C00000229A61124B0022DA61114B00221A620F4B00225A620E4800F02AFC0346002B24
:2013E00001D0FFF7FFFC7B68094ADA63084A7B68936300BF3037BD4680BD00BF001000A0B8
:20140000003802400010024000040240000C02402C000020B864024080B582B000AF7860D4
:201420007B681B680F4A934217D10F4B9B6B0E4A23F00203936304210C4801F0C5F94421DD
:201440000B4801F0C1F94FF460510A4801F0BCF97B68DB6B184600F099FC00BF0837BD4695
:2014600080BD00BF001000A0003802400010024000040240000C024080B584B000AF786070
:201480007B681B68B3F1804F14D1154B1B6C144A43F001031364124B1B6C03F00103FB6065
:2014A000FB68002200211C2000F012FB1C2000F02BFB10E07B681B680A4A93420BD1084B4D
:2014C0001B6C074A43F020031364054B1B6C03F02003BB60BB6800BF1037BD4680BD00BF37
:2014E000003802400014004080B582B000AF78607B681B68B3F1804F09D10C4B1B6C0B4A4A
:2015000023F0010313641C2000F00CFB0AE07B681B68074A934205D1044B1B6C034A23F088
:201520002003136400BF0837BD4680BD003802400014004080B586B000AF3B1D00221A60F7
:201540005A609A60DA601A613E4B1B68002B75D13C4B01221A603C4B9B6B3B4A43F0010338
:201560009363394B9B6B03F001033B603B684FF63F037B600223BB600023FB6003233B61D4
:201580000C237B613B1D1946304800F073FF0C237B600223BB600023FB6003233B610C23F6
:2015A0007B613B1D19462A4800F064FF80237B600223BB600023FB6003233B610C237B61CA
:2015C0003B1D1946234800F055FF48F233137B600223BB600023FB6003233B610C237B61BF
:2015E0003B1D19461C4800F045FF4FF683737B600223BB600023FB6003233B610C237B61FB
:201600003B1D1946154800F035FF4CF203737B600223BB600023FB6003233B610C237B6178
:201620003B1D19460E4800F025FF00220021302000F04EFA302000F067FA00E000BF18372F
:20164000BD4680BD28000020003802400014024000080240000002400018024000100240FA
:20166000000C024080B582B000AF7860FFF762FF00BF0837BD4680BD80B58CB000AF7860A1
:201680000023FB620023BB6200227968322000F01FFA322000F038FA1F4B1B6C1E4A43F02C
:2016A000080313641C4B1B6C03F00803FB60FB6807F1100207F114031146184602F02EFD13
:2016C00002F018FD03465B00FB62FB6A134AA2FB03239B0C013BBB62114B124A1A60104BF0
:2016E00040F2E732DA600E4ABB6A53600C4B00221A610B4B00229A60094803F0D2F9034677
:20170000002B04D1064803F027FA034600E0012318463037BD4680BD0038024083DE1B43DC
:20172000D4020020000C004080B400AF00BFBD465DF8047B704780B400AFFEE780B400AF8C
:20174000FEE780B400AFFEE780B400AFFEE780B400AF00BFBD465DF8047B704780B400AF01
:2017600000BFBD465DF8047B704780B400AF00BFBD465DF8047B704780B400AF00BFBD4647
:201780005DF8047B7047000080B500AF024803F00DFA00BF80BD00BFD401002080B500AF02
:2017A000024803F00FF900BF80BD00BF1402002080B500AF024803F0F9F900BF80BD00BF25
:2017C000D402002080B500AF024800F03DFB00BF80BD00BF2C00002080B500AF024801F097
:2017E000FFF900BF80BD00BFEC00002080B500AF024801F0F5F900BF80BD00BFEC00002056
:2018000080B400AF084BD3F88830074A43F47003C2F88830044B4FF000629A6000BFBD46F6
:201820005DF8047B704700BF00ED00E0DFF834D0002103E00C4B5B58435004310B480C4B36
:2018400042189A42F6D30B4A02E0002342F8043B094B9A42F9D3FFF7D3FF03F0B5FEFEF757
:2018600095FE70470000052080560008000000200C0000200C00002018030020FEE780B54E
:2018800000AF032000F019F90020FFF7F5FEFFF769FB0023184680BD80B400AF064B1B788C
:2018A0001A46064B1B681344044A136000BFBD465DF8047B704700BF080000201403002071
:2018C00080B400AF034B1B681846BD465DF8047B704700BF1403002080B584B000AF786082
:2018E000FFF7EEFFB8607B68FB60FB68B3F1FF3F05D0094B1B781A46FB681344FB6000BF7A
:20190000FFF7DEFF0246BB68D31AFA689A42F7D800BF1037BD4680BD0800002080B485B0B8
:2019200000AF78607B6803F00703FB600B4BDB68BB60BA684FF6FF031340BB60FB681A02DB
:20194000BB681A43064B1343BB60044ABB68D36000BF1437BD465DF8047B704700ED00E03C
:201960000000FA0580B400AF044BDB681B0A03F007031846BD465DF8047B704700ED00E018
:2019800080B483B000AF0346FB7197F90730002B0BDBFB7903F01F02074997F907305B09A1
:2019A000012000FA02F241F8232000BF0C37BD465DF8047B704700BF00E100E080B483B025
:2019C00000AF0346FB7197F90730002B10DBFB7903F01F02094997F907305B09012000FAA6
:2019E00002F2203341F82320BFF34F8FBFF36F8F00BF0C37BD465DF8047B704700E100E093
:201A000080B483B000AF03463960FB7197F90730002B0ADB3B68DAB20C4997F9073012012D
:201A2000D2B20B4483F800230AE03B68DAB20849FB7903F00F03043B1201D2B20B441A769D
:201A400000BF0C37BD465DF8047B704700E100E000ED00E080B489B000AFF860B9607A6001
:201A6000FB6803F00703FB61FB69C3F10703042B28BF0423BB61FB690433062B02D9FB6924
:201A8000033B00E000237B614FF0FF32BB6902FA03F3DA43BB681A407B699A404FF0FF31DC
:201AA0007B6901FA03F3D9437B680B40134318462437BD465DF8047B704780B582B000AF54
:201AC00078607868FFF72AFF00BF0837BD4680BD80B586B000AF0346B9607A60FB7300230A
:201AE0007B61FFF73FFF78617A68B9687869FFF7B1FF024697F90F3011461846FFF780FF32
:201B000000BF1837BD4680BD80B582B000AF0346FB7197F907301846FFF732FF00BF083762
:201B2000BD4680BD80B582B000AF0346FB7197F907301846FFF742FF00BF0837BD4680BD00
:201B400080B400AFBFF35F8F064B5B6A054A23F480335362044B00225A6000BFBD465DF8DC
:201B6000047B704700ED00E090ED00E080B483B000AF78600A4A7B6843F001035360094BA2
:201B80005B6A084A43F480335362BFF34F8FBFF36F8F00BF0C37BD465DF8047B704700BF00
:201BA00090ED00E000ED00E080B483B000AF78607B685A781D4B9A607B681B78002B29D05C
:201BC0001A4A7B685B68D3607B681B7B1A077B68DB7A1B061A437B689B7ADB041A437B6861
:201BE0005B7B9B041A437B689B7B5B041A437B68DB7B1B041A437B685B7A1B021A437B6894
:201C00001B7A5B0013437A6812781146074A0B43136105E0054B0022DA60044B00221A612B
:201C200000BF0C37BD465DF8047B704790ED00E080B586B000AF786000237B61FFF740FE92
:201C400038617B68002B01D1012399E07B68002283F834207B68022283F835207B681B685D
:201C60001A687B681B6822F001021A600FE0FFF727FE02463B69D31A052B08D97B682022D4
:201C80005A657B68032283F83520032378E07B681B681B6803F00103002BE8D17B681B6805
:201CA0001B687B617A69384B13407B617B685A687B689B681A437B68DB681A437B681B695E
:201CC0001A437B685B691A437B689B691A437B68DB691A437B681B6A13437A6913437B6108
:201CE0007B685B6A042B07D17B68DA6A7B681B6B13437A6913437B617B681B687A691A6077
:201D00007B681B685B697B617B6923F007037B617B685B6A7A6913437B617B685B6A042B4C
:201D200017D17B689B6A7A6913437B617B68DB6A002B0ED0786800F047FA0346002B08D030
:201D40007B6840225A657B68012283F83520012316E07B681B687A695A61786800F0FEF9C4
:201D60000346FB607B68DB6D3F229A40FB689A607B6800225A657B68012283F8352000233F
:201D800018461837BD4680BD3F8010F080B584B000AF78607B68002B01D1012350E07B6890
:201DA00093F83530DBB2022B01D1022348E07B681B681A687B681B6822F001021A607B689A
:201DC0001B6800221A607B681B6800225A607B681B6800229A607B681B680022DA607B687B
:201DE0001B6800221A617B681B6821225A61786800F0B4F90346FB607B68DB6D3F229A40D8
:201E0000FB689A607B680022DA637B6800221A647B6800225A647B6800229A647B680022D5
:201E2000DA647B6800221A657B6800225A657B68002283F835207B68002283F83420002350
:201E400018461037BD4680BD80B586B000AF78600023BB60924B1B68924AA2FB03239B0AC9
:201E60007B617B689B6D3B613B691B68FB607B68DB6D08229A40FB681340002B1AD07B68A0
:201E80001B681B6803F00403002B13D07B681B681A687B681B6822F004021A607B68DB6D29
:201EA00008229A403B699A607B685B6D43F001027B685A657B68DB6D01229A40FB6813401F
:201EC000002B12D07B681B685B6903F08003002B0BD07B68DB6D01229A403B699A607B68A6
:201EE0005B6D43F002027B685A657B68DB6D04229A40FB681340002B12D07B681B681B686A
:201F000003F00203002B0BD07B68DB6D04229A403B699A607B685B6D43F004027B685A6574
:201F20007B68DB6D10229A40FB681340002B43D07B681B681B6803F00803002B3CD07B6875
:201F4000DB6D10229A403B699A607B681B681B6803F48023002B18D07B681B681B6803F419
:201F60000023002B08D17B681B6C002B24D07B681B6C786898471FE07B689B6C002B1BD089
:201F80007B689B6C7868984716E07B681B681B6803F48073002B07D17B681B681A687B6801
:201FA0001B6822F008021A607B681B6C002B03D07B681B6C786898477B68DB6D20229A4030
:201FC000FB681340002B00F08E807B681B681B6803F01003002B00F086807B68DB6D2022A5
:201FE0009A403B699A607B6893F83530DBB2052B36D17B681B681A687B681B6822F016025A
:202000001A607B681B685A697B681B6822F080025A617B681B6C002B03D17B689B6C002BEA
:2020200007D07B681B681A687B681B6822F008021A607B68DB6D3F229A403B699A607B68FE
:20204000002283F834207B68012283F835207B681B6D002B7DD07B681B6D7868984778E054
:202060007B681B681B6803F48023002B1CD07B681B681B6803F40023002B08D17B685B6C15
:20208000002B30D07B685B6C786898472BE07B68DB6B002B27D07B68DB6B7868984722E06C
:2020A00000000020B5814E1B7B681B681B6803F48073002B0FD17B681B681A687B681B6835
:2020C00022F010021A607B68002283F834207B68012283F835207B68DB6B002B03D07B68AE
:2020E000DB6B786898477B685B6D002B32D07B685B6D03F00103002B22D07B68052283F8BF
:2021000035207B681B681A687B681B6822F001021A60BB680133BB607A699A4207D37B689F
:202120001B681B6803F00103002BF2D100E000BF7B68002283F834207B68012283F835206B
:202140007B68DB6C002B05D07B68DB6C7868984700E000BF1837BD4680BD00BF80B485B016
:2021600000AF78607B681B68DBB2103B134AA2FB03231B09FB60124AFB6813441B781A46F2
:202180007B68DA65FB68032B08D97B681B681A460C4B13401A1D7B689A6506E07B681B68D6
:2021A0001A46084B13407A6893657B689B6D18461437BD465DF8047B704700BFABAAAAAAB5
:2021C0006856000800FCFFFF80B485B000AF78600023FB737B689B6ABB607B689B69002BA9
:2021E0001FD1BB68032B55D801A252F823F000BF0122000813220008012200089522000860
:202200007B68DB6A03F08073002B45D00123FB7342E07B68DB6AB3F1C07F3FD10123FB730F
:202220003CE07B689B69B3F5005F21D1BB68032B36D801A252F823F0492200084F22000857
:2022400049220008612200080123FB732FE07B68DB6A03F08073002B24D00123FB7321E01F
:202260007B68DB6AB3F1C07F1ED10123FB731BE0BB68022B02D9032B03D018E00123FB7321
:2022800015E07B68DB6A03F08073002B0ED00123FB730BE000BF0AE000BF08E000BF06E0C0
:2022A00000BF04E000BF02E000BF00E000BFFB7B18461437BD465DF8047B704780B582B068
:2022C00000AF78607B68002B01D1012339E07B6893F83930DBB2002B06D17B68002283F874
:2022E00038207868FEF762FE7B68022283F839207B681B681B6823F440317B685A687B687D
:202300001B680A431A607B681B685B6B23F007017B689A687B681B680A435A637B681B6871
:202320001A6C0A4B13407A68D1687A6812680B4313647B680022DA637B68012283F8392017
:20234000002318460837BD4680BD00BF00C0FFFF80B487B000AF786039607B685B68B3F527
:20236000403F7B6893F83830012B01D1022379E07B68012283F838207B68022283F83920D8
:202380003B681B0118337A6813443B613B695A683B699B681B0413437B61354BFB603B6981
:2023A0005B680A2B03D03B695B68092B07D13B69DB6803F07F437A6913437B6105E03B69A5
:2023C000DB681B067A6913437B613B68002B20D17B681B685A6AFB68DB4302EA03017B6847
:2023E0001B687A690A435A627B681B683A6912689A613B695B680A2B03D03B695B68092BE6
:2024000027D13B69DA687B681B6822F07F429A621FE07B681B68DA69FB68DB4302EA030190
:202420007B681B687A690A43DA617B681B683A6912681A613B695B680A2B03D03B695B68F7
:20244000092B06D13B69DA687B681B6822F07F421A627B68012283F839207B68002283F87C
:202460003820002318461C37BD465DF8047B70470F0003FF80B489B000AF786039600023E1
:20248000FB6100237B6100233B610023BB610023FB6175E10122FB6902FA03F37B613B6816
:2024A0001B687A6913403B613A697B699A4240F064813B685B68012B0BD03B685B68022B4F
:2024C00007D03B685B68112B03D03B685B68122B30D17B689B68BB61FB695B00032202FA2A
:2024E00003F3DB43BA691340BB613B68DA68FB695B0002FA03F3BA691343BB617B68BA6905
:202500009A607B685B68BB610122FB6902FA03F3DB43BA691340BB613B685B681B0903F059
:202520000102FB6902FA03F3BA691343BB617B68BA695A607B68DB68BB61FB695B000322C7
:2025400002FA03F3DB43BA691340BB613B689A68FB695B0002FA03F3BA691343BB617B680B
:20256000BA69DA603B685B68022B03D03B685B68122B23D1FB69DA087B68083253F8223001
:20258000BB61FB6903F007039B000F2202FA03F3DB43BA691340BB613B681A69FB6903F0D3
:2025A00007039B0002FA03F3BA691343BB61FB69DA087B680832B96943F822107B681B6897
:2025C000BB61FB695B00032202FA03F3DB43BA691340BB613B685B6803F00302FB695B003C
:2025E00002FA03F3BA691343BB617B68BA691A603B685B6803F08053002B00F0BE80654B9F
:202600005B6C644A43F480435364624B5B6C03F48043FB60FB68604AFB699B08023352F878
:202620002330BB61FB6903F003039B000F2202FA03F3DB43BA691340BB617B68574A934207
:2026400037D07B68564A934231D07B68554A93422BD07B68544A934225D07B68534A934228
:202660001FD07B68524A934219D07B68514A934213D07B68504A93420DD07B684F4A934278
:2026800007D07B684E4A934201D1092312E00A2310E008230EE007230CE006230AE005239C
:2026A00008E0042306E0032304E0022302E0012300E00023FA6902F0030292009340BA690B
:2026C0001343BB613449FB699B080233BA6941F823203C4B1B68BB613B69DB43BA691340D2
:2026E000BB613B685B6803F48033002B03D0BA693B691343BB61334ABB691360314B5B6824
:20270000BB613B69DB43BA691340BB613B685B6803F40033002B03D0BA693B691343BB6182
:20272000284ABB695360274B9B68BB613B69DB43BA691340BB613B685B6803F48013002B50
:2027400003D0BA693B691343BB611E4ABB6993601C4BDB68BB613B69DB43BA691340BB61D4
:202760003B685B6803F40013002B03D0BA693B691343BB61134ABB69D360FB690133FB610A
:20278000FB690F2B7FF686AE00BF2437BD465DF8047B704700380240003801400000024015
:2027A0000004024000080240000C0240001002400014024000180240001C02400020024079
:2027C00000240240003C014080B487B000AF7860396000233B610023FB600023BB600023ED
:2027E0007B61D9E001227B6902FA03F33B613A683B691340FB60FA683B699A4240F0C98060
:202800006A4A7B699B08023352F82330BB607B6903F003039B000F2202FA03F3BA68134080
:20282000BB607B68624A934237D07B68614A934231D07B68604A93422BD07B685F4A9342F0
:2028400025D07B685E4A93421FD07B685D4A934219D07B685C4A934213D07B685B4A93424E
:202860000DD07B685A4A934207D07B68594A934201D1092312E00A2310E008230EE007239D
:202880000CE006230AE0052308E0042306E0032304E0022302E0012300E000237A6902F00F
:2028A000030292009340BA689A4232D14A4B1A68FB68DB43484913400B60474B5A68FB680F
:2028C000DB43454913404B60434B9A68FB68DB43414913408B60404BDA68FB68DB433E49A0
:2028E0001340CB607B6903F003039B000F2202FA03F3BB602D4A7B699B08023352F82310F4
:20290000BB68DA4329487B699B080A40023340F823207B681A687B695B00032101FA03F3CC
:20292000DB431A407B681A607B69DA087B68083253F822107B6903F007039B000F2202FAB9
:2029400003F3DB437A69D20819407B68083243F822107B68DA687B695B00032101FA03F34A
:20296000DB431A407B68DA607B685A6801217B6901FA03F3DB431A407B685A607B689A682C
:202980007B695B00032101FA03F3DB431A407B689A607B6901337B617B690F2B7FF622AF36
:2029A00000BF1C37BD465DF8047B704700380140000002400004024000080240000C0240DE
:2029C000001002400014024000180240001C02400020024000240240003C014080B483B0EB
:2029E00000AF78600B467B8013467B707B78002B03D07A887B689A6103E07B881A047B6808
:202A00009A6100BF0C37BD465DF8047B7047000080B584B000AF78607B68002B01D1012337
:202A2000BFE07B6893F8A130DBB2002B06D17B68002283F8A0207868FEF7D8FA7B6802223B
:202A400083F8A1207B681B689A697B681B6822F070429A617B681B6899697B685A687B68BC
:202A60009B681A437B68DB681A437B681B691A437B681B680A439A617B681B6899687B68B7
:202A80001A684A4B0B4093607B685B691B04FB607B681B6899687B689A69FB681A437B68D0
:202AA0001B680A439A607B681B68D9687B681A683E4B0B40D3607B68DB691B04FB607B68B5
:202AC0001B68D9687B681A6AFB681A437B681B680A43DA607B681B6819697B681A68334B53
:202AE0000B4013617B685B6A1B04FB607B681B6819697B689A6AFB681A437B681B680A43B3
:202B00001A617B681B6859697B681A68274B0B4053617B68DB6A1B04FB607B681B68596972
:202B20007B681A6BFB681A437B681B680A435A617B6893F835301B02FB607B6893F83630E0
:202B40001B04BB607B681B68DA6A7B681B6802F07F42DA627B681B68D96ABA68FB681343B8
:202B60007A6892F834201A437B681B680A43DA627B681B685A6B7B681B6842F006025A63C1
:202B80007B681B689A697B681B6842F001029A617B680022C3F8A4207B68012283F8A12070
:202BA000002318461037BD4680BD00BF00F800F080B582B000AF78607868FEF725FB7B68A0
:202BC0000022C3F8A4207B68002283F8A1207B68002283F8A020002318460837BD4680BDD3
:202BE00080B584B000AF78607B681B689B6BFB607B681B685B6BBB60FB6803F00403002B4F
:202C000023D0BB6803F00403002B1ED07B681B685A6B7B681B6822F004025A637B681B68BF
:202C20000422DA637B68D3F8A43043F001027B68C3F8A4207B68042283F8A1207B680022CD
:202C400083F8A020786800F06FF8FB6803F00203002B23D0BB6803F00203002B1ED07B6872
:202C60001B685A6B7B681B6822F002025A637B681B680222DA637B68D3F8A43043F0020253
:202C80007B68C3F8A4207B68042283F8A1207B68002283F8A020786800F046F8FB6803F0E9
:202CA0000103002B1BD0BB6803F00103002B16D07B681B685A6B7B681B6822F001025A636C
:202CC0007B681B680122DA637B68012283F8A1207B68002283F8A020786800F02FF8FB6852
:202CE00003F00803002B1BD0BB6803F00803002B16D07B681B685A6B7B681B6822F00802E1
:202D00005A637B681B680822DA637B68012283F8A1207B68002283F8A020786800F018F8C7
:202D200000BF1037BD4680BD80B483B000AF786000BF0C37BD465DF8047B704780B483B068
:202D400000AF786000BF0C37BD465DF8047B704780B483B000AF786000BF0C37BD465DF814
:202D6000047B7047B0B584B000AFF860B9607A60FB6893F8A030012B01D102232CE0FB683A
:202D8000012283F8A020FB68022283F8A120FA687B68342101FB03F3134403F13802BB68DE
:202DA00014461D460FCD0FC40FCD0FC40FCD0FC42B6823607A68B968F86800F011F8FB6874
:202DC0001B6801225A62FB68012283F8A120FB68002283F8A020002318461037BD46B0BDD7
:202DE00080B489B000AFF860B9607A60BB685A68FB681B68DB681B0CC3F30B0313441B04FD
:202E0000FB61FB681B681A467B68DB01134484335B68FA68126811467A68D2010A44843294
:202E200003F470435360BB681A68FB681B68DB681B0CC3F30B0313445A1CFB681B6819466A
:202E40007B68DB010B4484331946FB6913434B60BB68DA68FB681B68DB68C3F30A03134441
:202E60001B04FB61FB681B681A467B68DB01134484339B68FA68126811467A68D2010A448B
:202E8000843203F470439360BB689A68FB681B68DB68C3F30A0313445A1CFB681B681946BC
:202EA0007B68DB010B4484331946FB6913438B60FB681B681A467B68DB01134484331B69B2
:202EC000FA68126811467A68D2010A44843223F007031361FB681B681A467B68DB01134419
:202EE00084331A46BB681B691361BB6893F831301B02FB61BB6893F832301B04BB61BB68AA
:202F00009B691B067B61FB681B681A467B68DB01134484339B69FB681B681A467B68DB0194
:202F2000134484331A4600239361BB6893F830301A46FB691A43BB691A43FB681B68194617
:202F40007B68DB010B44843319467B6913438B61FB681B681A467B68DB01134484335B6950
:202F6000FA68126811467A68D2010A44843223F0FF035361FB681B681A467B68DB01134440
:202F800084331A46BB685B695361FB681B681A467B68DB0113448433DA69FB681B681946E4
:202FA0007B68DB010B4484331946584B1340CB61BB68DA69BB681B6AF968096808467968BC
:202FC000C901014484311343CB61FB681B681A467B68DB01134484339B6AFB681B681A464D
:202FE0007B68DB01134484331A4600239362FB681B681A467B68DB01134484331A46BB68F6
:203000005B6A9362BB681B69002B02D10423FB611BE0BB681B69012B02D10323FB6114E0B7
:20302000BB681B69042B0BD0BB681B69022B07D0BB681B69032B03D0BB681B69072B02D1E0
:203040000223FB6101E00123FB61FB681B681A467B68DB0113448433DB6AFA681268114603
:203060007A68D2010A44843203F0E023D362BB689B6AFA6902FB03F31A04BB685968BB68C9
:203080001B68CB1AF96901FB03F30333F968096808467968C901014484311343CB62FB6893
:2030A0001B681A467B68DB01134484331A6BFB681B6819467B68DB010B4484331946144B13
:2030C00013400B63FB681B681A467B68DB01134484331A46BB68DB6A1363FB681B681A4698
:2030E0007B68DB01134484331B68FA68126811467A68D2010A44843243F00103136000BF2B
:203100002437BD465DF8047B704700BFF8F8FFFF00F8FFFF80B582B000AF00237B60234BA1
:203120001B6C224A43F080531364204B1B6C03F080533B603B681E4B1B681D4A43F48033EC
:203140001360FEF7BDFB786009E0FEF7B9FB02467B68D31AB3F57A7F01D9032322E0144BCB
:203160005B6803F48033B3F5803FEED1104B1B680F4A43F400331360FEF7A2FB786009E055
:20318000FEF79EFB02467B68D31AB3F57A7F01D9032307E0064B5B6803F40033B3F5003FDC
:2031A000EED1002318460837BD4680BD003802400070004080B586B002AF7860FEF780FBC2
:2031C000F8607B68002B01D1012367E07B6893F84130DBB2002B0BD17B68002283F84020F9
:2031E0007868FEF755F841F28831786800F042F97B681B681B6823F4F8517B689B68013B4B
:203200001A027B681B680A431A607B689B6C0093FB6800222021786800F03AF90346FB7269
:20322000FB7A002B35D17B681B681A681D4B13407A68526811067A68D26811437A68D26905
:2032400011437A68126A11437A6812680B4313607B681B685A68144B13407A6812691104FF
:203260007A68526911437A68926911437A6812680B4353607B681B681A687B681B6842F04F
:2032800001021A607B6800225A647B68012283F841207B68002283F84020FB7A1846103712
:2032A000BD4680BD2FFFFF00FEF8E0FF80B582B000AF78607B68002B01D1012316E07B6801
:2032C0001B681A687B681B6822F001021A607868FEF7A2F87B6800225A647B68002283F842
:2032E00041207B68002283F84020002318460837BD4680BD80B588B002AFF860B9607A6024
:20330000FEF7DEFA3861FB6893F84030DBB2012B01D1022348E0FB68012283F84020FB684D
:2033200093F84130DBB2012B37D1FB6800225A64FB68022283F841207B6800933B690022EE
:203340002021F86800F0A4F80346FB75FB7D002B25D10022B968F86800F0D1F8BB685B6AAA
:20336000002B15D17B6800933B6901220221F86800F08EF80346FB75FB7D002B0FD1FB6867
:203380001B680222DA60FB68012283F8412006E0FB68012283F8412001E00223FB75FB68C9
:2033A000002283F84020FB7D18461837BD4680BD80B588B002AFF860B9607A60FEF780FAD3
:2033C0003861FB6893F84030DBB2012B01D102234CE0FB68012283F84020FB6893F841305A
:2033E000DBB2012B3BD1FB6800225A64FB68822283F84120FB689B6C00933B6900222021DE
:20340000F86800F045F80346FB75FB7D002B28D1FB681B681B6823F008017B685A68FB683D
:203420001B680A431A607B685B68082B10D1FB681B687A6812681A63FB681B681022DA6077
:20344000FB681B681A68FB681B6842F480121A604FF04062B968F86800F051F801E002233B
:20346000FB75FB68002283F84020FB7D18461837BD4680BD80B483B000AF786039607B68AD
:203480003A689A6400BF0C37BD465DF8047B704780B584B000AFF860B9603B601346FB7113
:2034A0001AE0BB69B3F1FF3F16D0FEF709FA02463B68D31ABA699A4202D3BB69002B0BD157
:2034C000FB68042283F84120FB685B6C43F00102FB685A6401230EE0FB681B689A68BB68E9
:2034E0001340002B14BF01230023DBB21A46FB799A42D6D1002318461037BD4680BD80B414
:2035000085B000AFF860B9607A60BB685B6A002B09D07B68B3F1406F05D0BB689A6AFB68FB
:203520001B68013A1A61BB689B69002B00F0B980BB681B6A002B5FD0FB681B68BA689268D3
:20354000DA61BB68DB69002B31D0BB68DA6ABB681B6B1A43BB685B6B1A43BB685B6A1A43A5
:20356000BB685B699B041A43BB681B691A43BB681B6A1A43BB68DB681A43BB68DB691A43D8
:20358000BB689B691A43BB681B6842EA0301FB681B687A680A435A617B68B3F1406F00F0DB
:2035A0002E81FB681B68BA6852689A6127E1BB68DA6ABB681B6B1A43BB685B6B1A43BB68C1
:2035C0005B6A1A43BB685B699B041A43BB681B691A43BB681B6A1A43BB68DB691A43BB68F6
:2035E0009B691A43BB681B6842EA0301FB681B687A680A435A6102E1BB68DB69002B2ED051
:20360000BB68DA6ABB681B6B1A43BB685B6B1A43BB685B6A1A43BB685B699B041A43BB68AC
:203620001B6A1A43BB68DB681A43BB68DB691A43BB689B691A43BB681B6842EA0301FB6864
:203640001B687A680A435A617B68B3F1406F00F0D680FB681B68BA6852689A61CFE0BB68F2
:20366000DA6ABB681B6B1A43BB685B6B1A43BB685B6A1A43BB685B699B041A43BB681B6AEA
:203680001A43BB68DB691A43BB689B691A43BB681B6842EA0301FB681B687A680A435A61DF
:2036A000ADE0BB681B6A002B58D0FB681B68BA689268DA61BB68DB69002B2DD0BB68DA6A4F
:2036C000BB681B6B1A43BB685B6B1A43BB685B6A1A43BB685B699B041A43BB681B691A4372
:2036E000BB681B6A1A43BB68DB681A43BB68DB691A43BB689B6942EA0301FB681B687A681F
:203700000A435A617B68B3F1406F78D0FB681B68BA6852689A6172E0BB68DA6ABB681B6B04
:203720001A43BB685B6B1A43BB685B6A1A43BB685B699B041A43BB681B691A43BB681B6A12
:203740001A43BB68DB691A43BB689B6942EA0301FB681B687A680A435A6150E0BB68DB698A
:20376000002B2AD0BB68DA6ABB681B6B1A43BB685B6B1A43BB685B6A1A43BB685B699B04A6
:203780001A43BB681B6A1A43BB68DB681A43BB68DB691A43BB689B6942EA0301FB681B6803
:2037A0007A680A435A617B68B3F1406F27D0FB681B68BA6852689A6121E0BB685B6A002B21
:2037C0001DD0BB68DA6ABB681B6B1A43BB685B6B1A43BB685B6A1A43BB685B699B041A4321
:2037E000BB681B6A1A43BB68DB691A43BB689B6942EA0301FB681B687A680A435A6100BF1A
:203800001437BD465DF8047B7047000080B586B000AF78600023FB757B68002B01D1012346
:2038200091E27B681B6803F00103002B00F08780964B9B6803F00C03042B0CD0934B9B68C4
:2038400003F00C03082B12D1904B5B6803F48003B3F5800F0BD18D4B1B6803F40033002B75
:203860006CD07B685B68002B68D101236BE27B685B68B3F5803F06D1844B1B68834A43F457
:20388000803313602EE07B685B68002B0CD17F4B1B687E4A23F4803313607C4B1B687B4AE5
:2038A00023F4802313601DE07B685B68B3F5A02F0CD1764B1B68754A43F480231360734BD6
:2038C0001B68724A43F4803313600BE06F4B1B686E4A23F4803313606C4B1B686B4A23F429
:2038E000802313607B685B68002B13D0FDF7E8FF386108E0FDF7E4FF02463B69D31A642B63
:2039000001D903231FE2614B1B6803F40033002BF0D014E0FDF7D4FF386108E0FDF7D0FF63
:2039200002463B69D31A642B01D903230BE2574B1B6803F40033002BF0D100E000BF7B6875
:203940001B6803F00203002B69D0504B9B6803F00C03002B0BD04D4B9B6803F00C03082B12
:203960001CD14A4B5B6803F48003002B16D1474B1B6803F00203002B05D07B68DB68012B17
:2039800001D00123DFE1414B1B6823F0F8027B681B69DB003D4913430B6040E07B68DB6887
:2039A000002B23D0394B1B68384A43F001031360FDF786FF386108E0FDF782FF02463B695B
:2039C000D31A022B01D90323BDE1304B1B6803F00203002BF0D02D4B1B6823F0F8027B6863
:2039E0001B69DB00294913430B6018E0274B1B68264A23F001031360FDF762FF386108E078
:203A0000FDF75EFF02463B69D31A022B01D9032399E11E4B1B6803F00203002BF0D17B6822
:203A20001B6803F00803002B38D07B685B69002B19D0164B5B6F154A43F001035367FDF7A8
:203A40003FFF386108E0FDF73BFF02463B69D31A022B01D9032376E10C4B5B6F03F0020303
:203A6000002BF0D01AE0094B5B6F084A23F001035367FDF725FF38610AE0FDF721FF024629
:203A80003B69D31A022B03D903235CE100380240914B5B6F03F00203002BEED17B681B68C1
:203AA00003F00403002B00F0A4808B4B1B6C03F08053002B0DD1884B1B6C874A43F0805370
:203AC0001364854B1B6C03F08053BB60BB680123FB75824B1B6803F48073002B18D17F4B68
:203AE0001B687E4A43F480731360FDF7E9FE386108E0FDF7E5FE02463B69D31A642B01D969
:203B0000032320E1754B1B6803F48073002BF0D07B689B68012B06D16F4B1B6F6E4A43F04E
:203B2000010313672DE07B689B68002B0CD16A4B1B6F694A23F001031367674B1B6F664A9D
:203B400023F0040313671CE07B689B68052B0CD1614B1B6F604A43F0040313675E4B1B6F1B
:203B60005D4A43F0010313670BE05B4B1B6F5A4A23F001031367584B1B6F574A23F00403B5
:203B800013677B689B68002B15D0FDF799FE38610AE0FDF795FE02463B69D31A41F288325A
:203BA000934201D90323CEE04B4B1B6F03F00203002BEED014E0FDF783FE38610AE0FDF7A1
:203BC0007FFE02463B69D31A41F28832934201D90323B8E0404B1B6F03F00203002BEED13E
:203BE000FB7D012B05D13C4B1B6C3B4A23F0805313647B689B69002B00F0A480364B9B68B1
:203C000003F00C03082B6BD07B689B69022B49D1314B1B68304A23F080731360FDF750FED2
:203C2000386108E0FDF74CFE02463B69D31A022B01D9032387E0284B1B6803F00073002BD1
:203C4000F0D17B68DA697B681B6A1A437B685B6A9B011A437B689B6A5B08013B1B041A4314
:203C60007B68DB6A1B0613431B4A43F000535360194B1B68184A43F080731360FDF720FE13
:203C8000386108E0FDF71CFE02463B69D31A022B01D9032357E0104B1B6803F00073002BE9
:203CA000F0D04FE00C4B1B680B4A23F080731360FDF706FE386108E0FDF702FE02463B6914
:203CC000D31A022B01D903233DE0034B1B6803F00073002BF0D135E000380240007000404B
:203CE0001B4B5B68FB607B689B69012B28D0FB6803F480027B68DB699A4221D1FB6803F00E
:203D00003F027B681B6A9A421AD1FA6847F6C07313407A68526A9201934211D1FB6803F4CC
:203D200040327B689B6A5B08013B1B049A4207D1FB6803F070627B68DB6A1B069A4201D099
:203D4000012300E0002318461837BD4680BD00BF0038024080B584B000AF7860396000236A
:203D6000FB607B68002B01D10123D0E06A4B1B6803F00F033A689A4210D9674B1B6823F048
:203D80000F0265493B6813430B60634B1B6803F00F033A689A4201D00123B8E07B681B6859
:203DA00003F00203002B20D07B681B6803F00403002B05D0594B9B68584A43F4E0539360EA
:203DC0007B681B6803F00803002B05D0534B9B68524A43F460439360504B9B6823F0F002D2
:203DE0007B689B684D4913438B607B681B6803F00103002B40D07B685B68012B07D1474B32
:203E00001B6803F40033002B15D101237FE07B685B68022B07D1414B1B6803F00073002B16
:203E200009D1012373E03D4B1B6803F00203002B01D101236BE0394B9B6823F003027B6840
:203E40005B68364913438B60FDF73AFDF8600AE0FDF736FD0246FB68D31A41F288329342F1
:203E600001D9032353E02D4B9B6803F00C027B685B689B009A42EBD1274B1B6803F00F03C0
:203E80003A689A4210D2244B1B6823F00F0222493B6813430B60204B1B6803F00F033A6848
:203EA0009A4201D0012332E07B681B6803F00403002B08D0194B9B6823F4E0527B68DB68E6
:203EC000164913438B607B681B6803F00803002B09D0124B9B6823F460427B681B69DB007F
:203EE0000E4913438B6000F021F801460B4B9B681B0903F00F030A4AD35C21FA03F3094A71
:203F00001360094B1B681846FDF7B6FB002318461037BD4680BD00BF003C02400038024095
:203F2000505600080000002004000020F0B585B000AF00237B600023FB6000233B600023A9
:203F4000BB60634B9B6803F00C03042B07D0082B08D0002B40F0B4805E4BBB60B3E05E4BF3
:203F6000BB60B0E05A4B5B6803F03F037B60584B5B6803F48003002B4AD0554B5B689B09F2
:203F80004FF0000440F2FF114FF0000203EA010504EA0206294632464FF000034FF0000406
:203FA000540144EAD1644B0119462246491B62EB06024FF000034FF00004940144EA916440
:203FC0008B015B1A64EB02044FF000014FF00002E20042EA5372D9000B4614465B1944EB10
:203FE00006044FF000014FF00002620242EAD35259020B461446184621467B684FF0000490
:204000001A462346FCF700F903460C46FB6049E02F4B5B689B094FF0000440F2FF114FF027
:20402000000203EA010504EA0206294632464FF000034FF00004540144EAD1644B011946C6
:204040002246491B62EB06024FF000034FF00004940144EA91648B015B1A64EB02044FF06D
:2040600000014FF00002E20042EA5372D9000B4614465B1944EB06044FF000014FF0000279
:20408000A20242EA935299020B461446184621467B684FF000041A462346FCF7B5F8034688
:2040A0000C46FB600A4B5B681B0C03F0030301335B003B60FA683B68B2FBF3F3BB6002E05C
:2040C000044BBB6000BFBB6818461437BD46F0BD003802400024F40000127A0080B400AF3A
:2040E000034B1B681846BD465DF8047B704700BF0000002080B500AFFFF7F0FF0146054BC4
:204100009B689B0A03F00703034AD35C21FA03F3184680BD003802406056000880B483B033
:2041200000AF786039607B680F221A60124B9B6803F003027B685A600F4B9B6803F0F0029A
:204140007B689A600C4B9B6803F4E0527B68DA60094B9B68DB0803F4E0527B681A61074BCF
:204160001B6803F00F023B681A6000BF0C37BD465DF8047B704700BF00380240003C024054
:2041800080B588B000AF786000237B6100233B610023FB600023FB610023BB617B681B68CB
:2041A00003F00103002B12D0694B9B68684A23F400039360664B9A687B685B6B6449134326
:2041C0008B607B685B6B002B01D10123FB617B681B6803F40023002B17D05D4BD3F88C300D
:2041E00023F440127B68DB6B59491343C1F88C307B68DB6BB3F5801F01D10123FB617B681B
:20420000DB6B002B01D10123BB617B681B6803F48013002B17D04E4BD3F88C3023F44002A0
:204220007B681B6C4A491343C1F88C307B681B6CB3F5800F01D10123FB617B681B6C002B2E
:2042400001D10123BB617B681B6803F08073002B01D00123FB617B681B6803F02003002BDD
:2042600000F08B803A4B1B6C394A43F080531364374B1B6C03F08053BB60BB68354B1B6827
:20428000344A43F480731360FDF71AFB786108E0FDF716FB02467B69D31A642B01D903238C
:2042A00055E32C4B1B6803F48073002BF0D0284B1B6F03F440733B613B69002B35D07B68FD
:2042C0001B6B03F440733A699A422ED0204B1B6F23F440733B611E4B1B6F1D4A43F4803392
:2042E00013671B4B1B6F1A4A23F480331367184A3B691367164B1B6F03F00103012B14D139
:20430000FDF7DEFA78610AE0FDF7DAFA02467B69D31A41F28832934201D9032317E30C4B1A
:204320001B6F03F00203002BEED07B681B6B03F44073B3F5407F11D1054B9B6823F4F81242
:204340007B68196B044B0B40014913438B600BE00038024000700040FFFCFF0FB04B9B68B5
:20436000AF4A23F4F8139360AD4B1A6F7B681B6BC3F30B03AA4913430B677B681B6803F06D
:204380001003002B10D0A64BD3F88C30A44A23F08073C2F88C30A24BD3F88C207B689B6BD0
:2043A0009F491343C1F88C307B681B6803F48043002B0AD09A4BD3F8903023F440327B6849
:2043C0005B6E97491343C1F890307B681B6803F40043002B0AD0924BD3F8903023F44022DF
:2043E0007B689B6E8E491343C1F890307B681B6803F48033002B0AD0894BD3F8903023F4A0
:2044000040127B68DB6E86491343C1F890307B681B6803F40033002B0AD0814BD3F8903094
:2044200023F440027B681B6F7D491343C1F890307B681B6803F04003002B0AD0784BD3F8F2
:20444000903023F003027B685B6C75491343C1F890307B681B6803F08003002B0AD0704BB1
:20446000D3F8903023F00C027B689B6C6C491343C1F890307B681B6803F48073002B0AD0CD
:20448000674BD3F8903023F030027B68DB6C64491343C1F890307B681B6803F40073002BF9
:2044A0000AD05F4BD3F8903023F0C0027B681B6D5B491343C1F890307B681B6803F48063FA
:2044C000002B0AD0564BD3F8903023F440727B685B6D53491343C1F890307B681B6803F46F
:2044E0000063002B0AD04E4BD3F8903023F440627B689B6D4A491343C1F890307B681B68C4
:2045000003F48053002B0AD0454BD3F8903023F440527B68DB6D42491343C1F890307B68A0
:204520001B6803F40053002B0AD03D4BD3F8903023F440427B681B6E39491343C1F8903040
:204540007B681B6803F48003002B0AD0344BD3F8903023F080627B689B6F31491343C1F801
:2045600090307B681B6803F40013002B11D02C4BD3F8903023F000627B68DB6F2849134394
:20458000C1F890307B68DB6FB3F1006F01D10123BB617B681B6803F00803002B01D00123CC
:2045A000BB617B681B6803F48023002B0AD01C4BD3F8903023F040727B685B6F18491343BF
:2045C000C1F890307B681B6803F40003002B0BD0134BD3F8903023F080527B68D3F88030D0
:2045E0000F491343C1F89030FB69012B05D07B681B68B3F1007F40F0D880094B1B68084AF5
:2046000023F080631360FDF75BF978610AE0FDF757F902467B69D31A642B03D9032396E1C1
:20462000003802406C4B1B6803F00063002BEED17B681B6803F00103002B21D07B685B6B64
:20464000002B1DD1644BD3F884301B0C03F003033B61614BD3F884301B0E03F00F03FB60A3
:204660007B685B689A013B691B041A43FB681B061A437B689B681B0757491343C1F884308D
:204680007B681B6803F40023002B04D07B68DB6BB3F5801F0AD07B681B6803F48013002B36
:2046A0002ED07B681B6CB3F5800F29D14A4BD3F884301B0C03F003033B61474BD3F8843080
:2046C0001B0F03F00703FB607B685B689A013B691B041A437B68DB681B061A43FB681B07CE
:2046E0003D491343C1F884303B4BD3F88C3023F01F027B685B6A013B37491343C1F88C3001
:204700007B681B6803F08073002B1DD0324BD3F884301B0E03F00F033B612F4BD3F8843076
:204720001B0F03F00703FB607B685B689A017B681B691B041A433B691B061A43FB681B072C
:2047400025491343C1F884307B681B6803F00073002B11D07B685B689A017B681B691B0489
:204760001A437B68DB681B061A437B689B681B0719491343C1F88430174B1B68164A43F093
:2047800080631360FDF79CF8786108E0FDF798F802467B69D31A642B01D90323D7E00E4B3E
:2047A0001B6803F00063002BF0D0BB69012B40F0CD80094B1B68084A23F080531360FDF7F2
:2047C0007FF878610AE0FDF77BF802467B69D31A642B03D90323BAE0003802405E4B1B684E
:2047E00003F00053B3F1005FEDD07B681B6803F40023002B03D07B68DB6B002B09D07B6825
:204800001B6803F48013002B2ED07B681B6C002B2AD1514BD3F888301B0C03F003033B61F7
:204820004D4BD3F888301B0F03F00703FB607B685B699A013B691B041A437B689B691B0671
:204840001A43FB681B0744491343C1F88830424BD3F88C3023F4F8527B689B6A013B1B026C
:204860003D491343C1F88C307B681B6803F40013002B22D07B68DB6FB3F1006F1DD1364BAB
:20488000D3F888301B0E03F00F033B61324BD3F888301B0F03F00703FB607B685B699A0107
:2048A0007B681B6A1B041A433B691B061A43FB681B0729491343C1F888307B681B6803F0DB
:2048C0000803002B28D0244BD3F888301B0E03F00F033B61204BD3F888301B0C03F00303E0
:2048E000FB607B685B699A01FB681B041A433B691B061A437B68DB691B0717491343C1F862
:204900008830154BD3F88C3023F440327B68DB6A11491343C1F88C300F4B1B680E4A43F0BA
:2049200080531360FCF7CCFF786108E0FCF7C8FF02467B69D31A642B01D9032307E0064B18
:204940001B6803F00053B3F1005FEFD1002318462037BD4680BD00BF0038024080B582B013
:2049600000AF786039607B68002B01D1012325E07B6893F82C30DBB2002B06D17B680022B0
:2049800083F82D207868FCF76DFE7B68022283F82C207B681A687B6804331946104600F01F
:2049A000EDFC7B6818687B685B681A46396800F057FD7B68012283F82C2000231846083733
:2049C000BD4680BD80B582B000AF78607B681B689B6903F00103012B0AD1786800F00CF86D
:2049E0007B681B685A697B681B6842F001025A6100BF0837BD4680BD80B483B000AF78600C
:204A000000BF0C37BD465DF8047B704780B584B000AFF860B9607A60FB6893F82C30DBB2CC
:204A2000022B01D1022318E0FB68022283F82C20FB681B687A68B968184600F091FDBB6824
:204A40001B68022B04D1FB68052283F82C2003E0FB68012283F82C20002318461037BD4685
:204A600080BD80B582B000AF786039607B6893F82C30DBB2022B01D102230EE07B68022202
:204A800083F82C207B681B683968184600F089FD7B68012283F82C20002318460837BD46E4
:204AA00080BD80B582B000AF78607B68002B01D101231DE07B6893F83D30DBB2002B06D160
:204AC0007B68002283F83C207868FCF7D5FC7B68022283F83D207B681A687B680433194699
:204AE000104600F065FA7B68012283F83D20002318460837BD4680BD80B582B000AF786045
:204B00007B68022283F83D207B681B681A6A41F211131340002B0FD17B681B681A6A40F2FB
:204B200044431340002B07D17B681B681A687B681B6822F001021A607868FCF7D5FC7B6834
:204B4000002283F83D207B68002283F83C20002318460837BD4680BD80B485B000AF78608F
:204B60007B681B68DA687B681B6842F00102DA607B681B689A680C4B1340FB60FB68062BB7
:204B80000BD0FB68B3F5803F07D07B681B681A687B681B6842F001021A60002318461437D0
:204BA000BD465DF8047B70470700010080B582B000AF78607B681B681B6903F00203022B62
:204BC00022D17B681B68DB6803F00203022B1BD17B681B686FF002021A617B6801221A774D
:204BE0007B681B689B6903F00303002B03D0786800F0C0F905E0786800F0B2F9786800F09B
:204C0000C3F97B6800221A777B681B681B6903F00403042B22D17B681B68DB6803F0040399
:204C2000042B1BD17B681B686FF004021A617B6802221A777B681B689B6903F44073002B3C
:204C400003D0786800F096F905E0786800F088F9786800F099F97B6800221A777B681B688E
:204C60001B6903F00803082B22D17B681B68DB6803F00803082B1BD17B681B686FF00802F7
:204C80001A617B6804221A777B681B68DB6903F00303002B03D0786800F06CF905E0786864
:204CA00000F05EF9786800F06FF97B6800221A777B681B681B6903F01003102B22D17B68DE
:204CC0001B68DB6803F01003102B1BD17B681B686FF010021A617B6808221A777B681B688B
:204CE000DB6903F44073002B03D0786800F042F905E0786800F034F9786800F045F97B68EA
:204D000000221A777B681B681B6903F00103012B0ED17B681B68DB6803F00103012B07D150
:204D20007B681B686FF001021A617868FCF748F87B681B681B6903F08003802B0ED17B6850
:204D40001B68DB6803F08003802B07D17B681B686FF080021A61786800F0FCFA7B681B68A6
:204D60001B6903F48073B3F5807F0ED17B681B68DB6803F08003802B07D17B681B686FF4D4
:204D800080721A61786800F0EFFA7B681B681B6903F04003402B0ED17B681B68DB6803F0E7
:204DA0004003402B07D17B681B686FF040021A61786800F0F3F87B681B681B6903F0200330
:204DC000202B0ED17B681B68DB6803F02003202B07D17B681B686FF020021A61786800F095
:204DE000AFFA00BF0837BD4680BD000080B584B000AF786039607B6893F83C30012B01D16B
:204E00000223A6E07B68012283F83C207B68022283F83D207B681B689B68FB60FA684F4B6B
:204E20001340FB60FB6823F47F43FB607B681B68FA689A603B681B68402B67D0402B0BD855
:204E4000102B73D0102B02D8002B6FD078E0202B6CD0302B6AD073E0702B0DD0702B04D89F
:204E6000502B33D0602B41D06AE0B3F5805F66D0B3F5005F17D063E07B6818683B689968D9
:204E80003B685A683B68DB6800F0ACF97B681B689B68FB60FB6843F07703FB607B681B689D
:204EA000FA689A604CE07B6818683B6899683B685A683B68DB6800F095F97B681B689A6832
:204EC0007B681B6842F480429A6039E07B6818683B6859683B68DB681A4600F009F97B687F
:204EE0001B685021184600F062F929E07B6818683B6859683B68DB681A4600F028F97B680B
:204F00001B686021184600F052F919E07B6818683B6859683B68DB681A4600F0E9F87B683A
:204F20001B684021184600F042F909E07B681A683B681B681946104600F039F900E000BF1A
:204F40007B68012283F83D207B68002283F83C20002318461037BD4680BD00BF88FFFEFF4C
:204F600080B483B000AF786000BF0C37BD465DF8047B704780B483B000AF786000BF0C37C3
:204F8000BD465DF8047B704780B483B000AF786000BF0C37BD465DF8047B704780B483B09E
:204FA00000AF786000BF0C37BD465DF8047B704780B485B000AF786039607B681B68FB6090
:204FC0007B68404A934213D07B68B3F1804F0FD07B683D4A93420BD07B683C4A934207D048
:204FE0007B683B4A934203D07B683A4A934208D1FB6823F07003FB603B685B68FA6813432A
:20500000FB607B682F4A93422BD07B68B3F1804F27D07B682C4A934223D07B682B4A93426E
:205020001FD07B682A4A93421BD07B68294A934217D07B68284A934213D07B68274A934222
:205040000FD07B68264A93420BD07B68254A934207D07B68244A934203D07B68234A934252
:2050600008D1FB6823F44073FB603B68DB68FA681343FB60FB6823F080023B685B69134321
:20508000FB607B68FA681A603B689A687B68DA623B681A687B689A627B680A4A934203D04F
:2050A0007B680C4A934203D13B681A697B681A637B6801225A6100BF1437BD465DF8047BE6
:2050C000704700BF000001400004004000080040000C0040000401400040014000440140F6
:2050E0000048014000180040001C00400020004080B487B000AFF860B9607A60FB681B6AC6
:205100007B61FB681B6A23F00102FB681A62FB689B693B613B6923F0F0033B617B681B018E
:205120003A6913433B617B6923F00A037B617A69BB6813437B61FB683A699A61FB687A697B
:205140001A6200BF1C37BD465DF8047B704780B487B000AFF860B9607A60FB681B6A23F0D3
:205160001002FB681A62FB689B697B61FB681B6A3B617B6923F470437B617B681B037A6909
:2051800013437B613B6923F0A0033B61BB681B013A6913433B61FB687A699A61FB683A69CC
:2051A0001A6200BF1C37BD465DF8047B704780B485B000AF786039607B689B68FB60FB68A6
:2051C00023F07003FB603A68FB68134343F00703FB607B68FA689A6000BF1437BD465DF85A
:2051E000047B704780B487B000AFF860B9607A603B60FB689B687B617B6923F47F437B619E
:205200003B681A027B681A43BB6813437A6913437B61FB687A699A6000BF1C37BD465DF857
:20522000047B704780B485B000AF786039607B6893F83C30012B01D102236DE07B6801225F
:2052400083F83C207B68022283F83D207B681B685B68FB607B681B689B68BB607B681B682A
:20526000304A934204D07B681B682F4A934208D1FB6823F47003FB603B685B68FA68134318
:20528000FB60FB6823F07003FB603B681B68FA681343FB607B681B68FA685A607B681B684E
:2052A000204A934222D07B681B68B3F1804F1DD07B681B681D4A934218D07B681B681C4AA1
:2052C000934213D07B681B681A4A93420ED07B681B68154A934209D07B681B68164A93428B
:2052E00004D07B681B68154A93420CD1BB6823F08003BB603B689B68BA681343BB607B6873
:205300001B68BA689A607B68012283F83D207B68002283F83C20002318461437BD465DF810
:20532000047B704700000140000401400004004000080040000C0040004001400018004000
:2053400080B483B000AF786000BF0C37BD465DF8047B704780B483B000AF786000BF0C37DF
:20536000BD465DF8047B704780B483B000AF786000BF0C37BD465DF8047B704780B485B0B8
:2053800000AF786039600023FB600023BB603B681B68012B27D07B681B68FB60FA682F4B4B
:2053A0001340FB603B685A683B689B681A433B68DB681A433B681B691A433B685B691A434C
:2053C0003B689B691A433B68DB691A433B681B6A1A433B685B6A1343FA681343FB607B684C
:2053E000FA681A6032E07B681B68FB60FB6823F4F843FB603B68DA693B681B6A1A433B68E0
:205400005B6A1343FA681343FB607B685B68BB60BA68124B1340BB603B685A683B689B68A5
:205420001A433B68DB681A433B681B691A433B685B691A433B689B691343BA681343BB60F4
:205440007B68FA681A607B68BA685A60002318461437BD465DF8047B704700BF0080FFFF37
:2054600080B487B000AFF860B9607A6000237B6100233B617B68012B2ED0FB689B687B61BA
:205480007B6903F070437B61BB681B685A1EBB685B68013B1B011A43BB689B68013B1B026E
:2054A0001A43BB68DB68013B1B031A43BB681B69013B1B041A43BB685B69013B1B051A4373
:2054C000BB689B69013B1B0613437A6913437B61FB687A699A6039E0FB689B687B617A695F
:2054E0001E4B13407B61BB68DB68013B1A03BB685B69013B1B0513437A6913437B61FB6844
:20550000DB683B613B6903F070433B61BB681B685A1EBB685B68013B1B011A43BB689B68E7
:20552000013B1B021A43BB681B69013B1B041A43BB689B69013B1B0613433A6913433B61E7
:20554000FB687A699A60FB683A69DA60002318461C37BD465DF8047B704700BFFF0F0FFF8E
:2055600080B487B000AFF860B9607A6000237B61BB681A68BB685B681A43BB689B68013B7D
:205580005B011A43BB68DB685B0213437B617A69FB681A61002318461C37BD465DF8047BF1
:2055A000704780B483B000AF786039607B685A693B685B001A437B685A61002318460C374A
:2055C000BD465DF8047B704770B50D4E0D4CA41BA4100025A54209D10B4E0C4C00F02CF846
:2055E000A41BA4100025A54205D170BD56F8253098470135EEE756F8253098470135F2E70B
:205600007856000878560008785600087C56000810B5431E0A44914200D110BD11F8014BF4
:2056200003F8014FF7E702440346934200D1704703F8011BF9E70000F8B500BFF8BC08BC7A
:205640009E467047F8B500BFF8BC08BC9E4670470000000000000000010203040607080908
:2056600000000000010203040006101600061016C8ABFF7F01000000ED010008C90100080E
:0C5680000024F4001000000001000000F5
:02000004900268
:2000000000000420C11702C0351502C0431502C0491502C04F1502C0551502C0000000008A
:20002000000000000000000000000000D19602C05B1502C000000000D19802C0399902C0A6
:20004000111802C0111802C0111802C0111802C0111802C0111802C0111802C0111802C048
:20006000111802C0111802C0111802C0111802C0111802C0111802C0111802C0111802C028
:20008000111802C0111802C0111802C0111802C0111802C0111802C0111802C0111802C008
:2000A000111802C0111802C0111802C0111802C0111802C0111802C0111802C0111802C0E8
:2000C000111802C0111802C0111802C0111802C0111802C0111802C0111802C0111802C0C8
:2000E000111802C0111802C0111802C0111802C0111802C0111802C0111802C0111802C0A8
:20010000111802C0111802C0691502C0111802C0111802C0111802C0111802C07D1502C0C9
:20012000111802C0111802C0111802C0111802C0111802C0111802C0111802C0111802C067
:20014000111802C0111802C0111802C0111802C0111802C0111802C0911502C0111802C0CA
:20016000A51502C0B91502C0111802C0111802C0111802C0111802C0111802C0111802C0F1
:20018000111802C0111802C0111802C0111802C0111802C0111802C0111802C0111802C007
:2001A000CD1502C0E11502C0F51502C0111802C0111802C0111802C0111802C0111802C080
:2001C000111802C0111802C0000000000000000010B5054C237833B9044B13B10448AFF3AB
:2001E00000800123237010BDF80000200000000088F803C008B5034B1BB103490348AFF390
:20020000008008BD00000000FC00002088F803C001F0FF01102A2BDB10F0070F08D010F813
:20022000013B013A8B422DD010F0070F42B3F6D1F0B441EA012141EA014122F007047FF0C1
:2002400000070023F0E80256083C85EA010586EA010685FA47F5A3FA87F586FA47F6A5FAE4
:2002600087F68EB9EED1F0BC01F0FF0102F0070232B110F8013B013A83EA010313B1F8D103
:200280000020704701387047002D06BF35460338073815F0010F07D1013015F4807F02BFC9
:2002A000013015F4C03F0130F0BC0138704700BF53B94AB9002908BF00281CBF4FF0FF3108
:2002C0004FF0FF3000F072B9ADF1080C6DE904CE00F006F8DDF804E0DDE9022304B07047BE
:2002E0002DE9F047089E04468846002B4BD18A42154667D9B2FA82F24AB1C2F1200701FA55
:2003000002F320FA07F7954047EA030894404FEA154E230CB8FBFEF71FFA85FC0EFB178836
:2003200043EA084307FB0CF1994209D9EB1807F1FF3080F01B81994240F21881023F2B44FD
:200340005B1AA4B2B3FBFEF00EFB103344EA034400FB0CFCA44509D92C1900F1FF3380F0CF
:200360000781A44540F2048102382C4440EA0740A4EB0C0400271EB1D4400023C6E900437C
:200380003946BDE8F0878B4209D9002E00F0EB800027C6E9000138463946BDE8F087B3FAED
:2003A00083F7002F47D18B4202D3824200F2FA80841A61EB030301209846002EE0D0C6E92E
:2003C0000048DDE702B9FFDEB2FA82F2002A40F08F80491B4FEA154E1FFA85F80127B1FB86
:2003E000FEFC230C0EFB1C1143EA014308FB0CF1994207D9EB180CF1FF3002D2994200F2A2
:20040000CD808446591AA3B2B1FBFEF00EFB101443EA044408FB00F8A04507D92C1900F1CB
:20042000FF3302D2A04500F2B6801846A4EB080440EA0C409FE7C7F1200CBB4022FA0CFEAF
:200440004EEA030E01FA07F420FA0CF521FA0CF34FEA1E482543B3FBF8F92C0C08FB1933FB
:200460001FFA8EFA44EA034309FB0AF49C4202FA07F200FA07F10BD91EEB030309F1FF3084
:2004800080F087809C4240F28480A9F1020973441B1BADB2B3FBF8F008FB103345EA03448E
:2004A00000FB0AFAA24508D91EEB040400F1FF336BD2A24569D90238744440EA0940A0FBDB
:2004C0000289A4EB0A044C45C2464B4654D351D0002E69D0B1EB0A0564EB030404FA0CFC14
:2004E000FD40FC404CEA0505C6E90054002747E7C2F1200320FA03F7954001FA02F021FA24
:2005000003F34FEA154E3843010CB3FBFEF71FFA85F80EFB173341EA034107FB08F38B42FC
:2005200004FA02F407D9691807F1FF3C2FD28B422DD9023F2944CB1A81B2B3FBFEF00EFBF4
:20054000103341EA034100FB08F38B4207D9691800F1FF3C17D28B4215D902382944C91A6B
:2005600040EA07473BE73746304609E70746E7E61846FBE64145ABD2B8EB020A69EB0E028F
:2005800001381346A4E76046E9E7184695E76746D1E781467CE702382C4447E7ACF1020CDC
:2005A0002B442FE7384608E73746E9E6704700BF80B400AF00BFBD465DF8047B7047000057
:2005C00080B400AFBFF34F8FBFF36F8F0B4B0022C3F85022BFF34F8FBFF36F8F074B5B69FD
:2005E000064A43F400335361BFF34F8FBFF36F8F00BFBD465DF8047B704700BF00ED00E074
:2006000080B485B000AF1D4B0022C3F88420BFF34F8F1A4BD3F880307B607B685B0BC3F38F
:200620000E03FB607B68DB08C3F30903BB60FB685A0143F6E0731340BA6892070F491343A5
:20064000C1F86032BB685A1EBA60002BEFD1FB685A1EFA60002BE5D1BFF34F8F074B5B69F3
:20066000064A43F480335361BFF34F8FBFF36F8F00BF1437BD465DF8047B704700ED00E0E7
:2006800080B400AF184B5B6C174A23F080635364154B5B6A144A43F080635362124B5B6ACF
:2006A000114A23F0806353620F4B1B680E4A23F0805313600C4B0022C3F88C200A4BD3F8A6
:2006C0008830094A23F07043C2F88830064BD3F88830054A43F00053C2F8883000BFBD46FA
:2006E0005DF8047B704700BF0038024080B500AF1E4A00211E481EF04AF9FFF7C1FF00F06C
:20070000E7FBFFF75DFFFFF77BFF01F083F800F039F800F0E1FA00F085FA00F01BFA00F079
:20072000F1F800F061F900F0CBF800F0CDFA00F071FA00F019F900F015FA09F06FFB0B4A08
:2007400000210B481EF023F901223021094802F05FFA05F0D3FE084A0021084805F038FF36
:200760000246074B1A6005F0FDFEFEE700B80B00000050C000100240B8FD03C0BD0E02C066
:2007800028C1002080B5B4B000AF07F1A0033022002118461EF0FBF807F18C0300221A6078
:2007A0005A609A60DA601A6107F108038422002118461EF0ECF803F007FF3E4B1B6C3D4A26
:2007C00043F0805313643B4B1B6C03F080537B607B68394B1B68384A43F440431360364BD4
:2007E0001B6803F440433B603B680123C7F8A0304FF48033C7F8A4300223C7F8B8304FF473
:200800008003C7F8BC300423C7F8C030D823C7F8C4300223C7F8C8300223C7F8CC3007F172
:20082000A003184603F030FF0346002B01D000F06FFB03F0D9FE0346002B01D000F068FB94
:200840000F23C7F88C300223C7F890300023C7F894304FF4A053C7F898304FF48053C7F80F
:200860009C3007F18C030721184604F0B1F90346002B01D000F04CFB104BBB604523FB614B
:2008800003237B6202233B620023BB6201233B6300237B6300237B6707F10803184604F036
:2008A000ADFB0346002B01D000F032FB00BFD037BD4680BD003802400070004008000100F5
:2008C00080B500AF0D4B0E4A1A600C4B00221A710A4B00225A71094B00225A61074B00221F
:2008E0009A61064B01221A62044801F0FDF80346002B01D000F00CFB00BF80BD38C2002089
:200900000030024080B500AF154B164A1A60144B00225A60124B02229A60114B0022DA60D9
:200920000F4B00229A620E4B0222DA620C4B00221A630B4B00225A63094801F0C9FC03460B
:20094000002B01D000F0E4FA0121054801F01AFE0346002B01D000F0DBFA00BF80BD00BF90
:2009600004C3002000B0024080B500AF1B4B1C4A1A601A4B1B4A5A60184B00229A60174B0F
:200980000122DA60154B00221A61144B00225A61124B00229A61114B0022DA610F4B002212
:2009A0001A620E4802F04EF90346002B01D000F0AFFA0021094803F0D8F90346002B01D0D3
:2009C00000F0A6FA0021054803F01AFA0346002B01D000F09DFA00BF80BD00BF2CC100207E
:2009E000005C00400D03006080B59AB000AF07F134033422002118461DF0C9FF3B4634220D
:200A0000002118461DF0C3FF4F4B504A1A604E4B00225A604C4B00229A604B4B0022DA60C0
:200A2000494B00221A61484B03225A61464B03229A61454B0B22DA61434B0B221A62424BA5
:200A400040F22B325A62404B40F2EB129A623E4B40F23332DA623C4B40F2F3121A633A4B79
:200A6000002283F83420384B002283F83520364B002283F83620344803F00EFA0346002BB1
:200A800001D000F045FA00237B634FF44873BB630023FB634FF4F0733B6402237B64FF234D
:200AA000BB640023FB644FF480633B6505237B65274BBB654FF44873FB654FF4F0733B6690
:200AC000002387F86430002387F86530002387F8663007F13403002219461B4803F064FB0C
:200AE0000346002B01D000F013FA00233B6000237B600023BB600023FB6000237B6100231A
:200B0000BB614FF48063FB6105233B6200237B620023BB620023FB62002387F8303000238D
:200B200087F83130002387F832303B4601221946054803F039FB0346002B01D000F0E8F944
:200B400000BF6837BD4680BD5CC2002000680140000050C080B400AF00BFBD465DF8047B87
:200B60007047000080B58AB000AF07F11C0300221A605A609A603B4600221A605A609A6068
:200B8000DA601A615A619A61214B4FF080421A601F4B35225A601E4B00229A601C4B632217
:200BA000DA601B4B00221A61194B80229A61184804F068FE0346002B01D000F0A9F9002343
:200BC000FB6100237B6207F11C031946104805F0E1FB0346002B01D000F09AF960233B6034
:200BE00000237B600023BB6000233B613B4608221946074804F090FF0346002B01D000F0E9
:200C000087F9034800F008FC00BF2837BD4680BD44C3002080B485B000AF1437BD465DF8D5
:200C2000047B704780B582B000AF244B1B6B234A43F480031363214B1B6B03F480037B608F
:200C40007B681F4B1F4A1A601D4B00225A601C4B80229A601A4B4FF40072DA60184B4FF423
:200C600080621A61164B00225A61154B00229A61134B0022DA61124B00221A62104B042225
:200C80005A620F4B03229A620D4B0022DA620C4B00221A630A4801F011F80346002B01D0E0
:200CA00000F036F900220521462000F0E5FE462000F0FEFE00BF0837BD4680BD003802408A
:200CC000D8C100201064024080B489B000AF2437BD465DF8047B704780B58EB000AF07F186
:200CE000240300221A605A609A60DA601A616B4B1B6B6A4A43F010031363684B1B6B03F0F0
:200D000010033B623B6A654B1B6B644A43F004031363624B1B6B03F00403FB61FB695F4B53
:200D20001B6B5E4A43F0200313635C4B1B6B03F02003BB61BB69594B1B6B584A43F08003B4
:200D40001363564B1B6B03F080037B617B69534B1B6B524A43F001031363504B1B6B03F03F
:200D600001033B613B694D4B1B6B4C4A43F0020313634A4B1B6B03F00203FB60FB68474B6A
:200D80001B6B464A43F040031363444B1B6B03F04003BB60BB68414B1B6B404A43F00803EE
:200DA00013633E4B1B6B03F008037B607B68002230213B4801F02CFF00224021394801F0EB
:200DC00027FF00224FF48041374801F021FF01224FF48071354801F01BFF00224FF40051A2
:200DE000334801F015FF30237B620123BB620023FB6200233B6307F124031946284801F0E2
:200E000053FC40237B620123BB620023FB6202233B6307F124031946224801F045FC4FF462
:200E200080437B620123BB620023FB6200233B6307F1240319461C4801F036FC4FF4807355
:200E40007B620123BB620023FB6200233B6307F124031946154801F027FC4FF480637B6241
:200E6000144BBB620023FB6207F124031946124801F01AFC4FF400537B620123BB620023C0
:200E8000FB6200233B6307F124031946084801F00BFC00BF3837BD4680BD00BF00380240C7
:200EA0000010024000140240000402400008024000180240000011100000024080B582B0D6
:200EC00000AF786008F0B0FF012005F027FCFBE780B485B000AF3B4600221A605A609A60E0
:200EE000DA601437BD465DF8047B704780B582B000AF78607B681B68044A934201D100F0A6
:200F00009FFC00BF0837BD4680BD00BF000C004080B400AF00BFBD465DF8047B70470000BD
:200F200080B483B000AF0F4B1B6C0E4A43F0805313640C4B1B6C03F080537B607B68094B2F
:200F40005B6C084A43F480435364064B5B6C03F480433B603B6800BF0C37BD465DF8047BDE
:200F6000704700BF0038024080B485B000AF78607B681B680A4A93420BD10A4B1B6B094AF8
:200F800043F480531363074B1B6B03F48053FB60FB6800BF1437BD465DF8047B704700BF1A
:200FA000003002400038024080B584B000AF78607B681B680D4A934213D10D4B1B6B0C4AAB
:200FC00043F4000313630A4B1B6B03F40003FB60FB68002205215A2000F04EFD5A2000F067
:200FE00067FD00BF1037BD4680BD00BF00B002400038024080B58AB000AF786007F1140317
:2010000000221A605A609A60DA601A617B681B682E4A934255D12E4B1B6B2D4A43F0040342
:2010200013632B4B1B6B03F004033B613B69284B1B6B274A43F001031363254B1B6B03F004
:201040000103FB60FB684FF400737B611223BB610123FB6103233B6204237B6207F1140395
:2010600019461C4801F020FB4FF480737B611223BB610123FB6103233B6204237B6207F1FF
:2010800014031946144801F00FFB114B1B6C104A43F4000313640E4B1B6C03F40003BB60A0
:2010A000BB6800220521482000F0E6FC482000F0FFFC00220521492000F0DEFC492000F064
:2010C000F7FC00BF2837BD4680BD00BF005C004000380240000802400000024080B582B0F7
:2010E00000AF78607B681B680E4A934215D10E4B1B6C0D4A23F4000313644FF400710B4821
:2011000001F07CFC4FF48071094801F077FC482000F0DCFC492000F0D9FC00BF0837BD461E
:2011200080BD00BF005C004000380240000802400000024080B58EB000AF786007F12403F8
:2011400000221A605A609A60DA601A617B681B68874A934240F00881864B5B6C854A43F02B
:2011600080635364834B5B6C03F080633B623B6A804B1B6B7F4A43F0200313637D4B1B6BF4
:2011800003F02003FB61FB697A4B1B6B794A43F004031363774B1B6B03F00403BB61BB6939
:2011A000744B1B6B734A43F001031363714B1B6B03F001037B617B696E4B1B6B6D4A43F05E
:2011C000020313636B4B1B6B03F002033B613B69684B1B6B674A43F040031363654B1B6B14
:2011E00003F04003FB60FB68624B1B6B614A43F0080313635F4B1B6B03F00803BB60BB68FD
:201200004FF480637B620223BB620023FB6203233B630E237B6307F124031946564801F029
:2012200043FAC1237B620223BB620023FB6203233B630E237B6307F1240319464F4801F015
:2012400033FA02237B620223BB620023FB6200233B630E237B6307F124031946484801F0CE
:2012600023FA78237B620223BB620023FB6203233B630E237B6307F124031946404801F04D
:2012800013FA03237B620223BB620023FB6203233B6309237B6307F124031946394801F0BE
